:100000000C9419010C94CE060C94CE060C94CE06DA
:100010000C94CE060C94CE060C94CE060C94CE0610
:100020000C94CE060C94CE060C94CE060C94CE0600
:100030000C94CE060C94CE060C94CE060C94CE06F0
:100040000C94CE060C94CE060C94CE060C94CE06E0
:100050000C94CE060C94CE060C94CE060C94CE06D0
:100060000C94CE060C94CE060C94CE060C94CE06C0
:100070000C94CE060C94CE060C94CE060C94CE06B0
:100080000C949F060C94CE060C94CE060C94CE06CF
:100090000C94CE060C94CE060C94CE060C94CE0690
:1000A0000C94CE060C94CE060C94CE060C94CE0680
:1000B0000C94CE060C94CE060C94CE060C94CE0670
:1000C0000C94CE060C94CE060C94CE060C94CE0660
:1000D0000C94CE060C94CE060C94CE060C94CE0650
:1000E0000C94CE061D062506250625061F062506A8
:1000F00021062306250625062506250625062506AE
:100100002506250625062506250625062506250697
:100110002506250625062506250625062506250687
:100120002506250625062506250625062506250677
:100130002506250625062506250625062506250667
:100140002506250625062506250625062506250657
:100150002506250625062506250625062506250647
:100160002506250615062506250625061706250655
:1001700019061B062506250625062506250625063D
:100180002506250625062506250625062506250617
:100190002506250625062506250625062506250607
:1001A000250625060D062506250625060F06250625
:1001B000110613062506250625062506250625060D
:1001C00025062506070625062506250627062506F3
:1001D00009060B060200020A80020A0228000DA08E
:1001E0000228022980000C94BC060C941F060C9473
:1001F0001B060C9419060C9407060C940B060C9421
:100200001D060C9411060C9417060C940D060C9404
:100210000F060C9421060C9425060C9423060C94CE
:1002200027060C94B5060C9409060C9413060C943E
:10023000150611241FBECFEFD1E2DEBFCDBF00E017
:100240000CBFE4EDF1E041E019C0B791A7913791FF
:100250002791079107FD0EC097918791EF01F92F24
:10026000E82F0BBF07900D92A217B307D9F7FE0135
:100270001BBE04C01D92A217B307E1F7E53EF407C9
:0E02800021F70E949D030C944501F894FFCFD6
:10028E0053746174653A2041524D45440A0D005332
:10029E00746174653A204D4F54494F4E4445544550
:1002AE00435445440A0D0054696D656F75740A0D0B
:1002BE000053746174653A2044495341524D45448C
:1002CE000A0D00526573657474696E672E2E2E0AC0
:0C02DE000D0054494D454F55540A0D00C9
:1002EA002F923F924F926F927F928F929F92AF92EC
:1002FA00BF92CF92DF92EF92FF920F931F93CF9309
:10030A00DF93CDB7DEB762970FB6F894DEBF0FBEA4
:10031A00CDBF6C013A01862E7901FC011086178245
:10032A00848181FFEBC19E012F5F3F4F3D872C8760
:10033A00C901A0E8888B998BAA8B9FE3992EF301B8
:10034A00582D0E94C306862F662309F4D3C1482D6F
:10035A0093012F5F3F4F4F4F653219F03901842EB9
:10036A000BC0F901542F0E94C306862F92E0690E32
:10037A00711C811C653229F4B60190E00E94B60511
:10038A00DECFB12C00E010E01032A0F48B3269F01D
:10039A0030F4803259F0833269F410612CC08D3206
:1003AA0039F0803339F4116026C01260146023C01A
:1003BA00186021C017FD2AC090ED980F9A3078F482
:1003CA0016FF06C0AAE0BA9E900D1124B92E13C0DA
:1003DA00EAE00E9F900D1124092F10620CC08E3294
:1003EA0021F416FD87C1106406C08C3611F410681A
:1003FA0002C0883659F4F301582D0E94C306862F8D
:10040A00FFEF6F1A7F0A8F0A6111BECF982F9F7D67
:10041A009554933028F424E0E20EF11C99820FC01F
:10042A00833631F0833791F0833509F064C027C0F1
:10043A00F7018081898397012E5F3F4F79012888D0
:10044A0039884A88AA24A394B12C17C0A7014D5F02
:10045A005F4F5F874E87F70120803180428016FF09
:10046A0003C04B2D50E002C04FEF5FEF842DB10166
:10047A000E9447065C01EE84FF841F7718C097012B
:10048A002D5F3F4F3F872E87F701208031804280C2
:10049A0016FF03C04B2D50E002C04FEF5FEF842DD3
:1004AA00B1010E9447065C011068EE84FF8413FDC7
:1004BA001EC0802F90E0A816B906C8F4B60180E2E3
:1004CA0090E00E94B6050150F4CFF101542D0E942C
:1004DA00C306862FFFEF2F1A3F0A4F0AB60190E094
:1004EA000E94B6050111015021E0A21AB108A11417
:1004FA00B10459F7F5C0843611F0893671F5F70160
:10050A0017FF08C0608171818281938197012C5FF6
:10051A003F4F09C060817181072E000C880B990B2F
:10052A0097012E5F3F4F79011F76312E97FF0AC040
:10053A0090958095709561957F4F8F4F9F4F312F82
:10054A003068332E2AE030E0AE014F5F5F4F0E94E1
:10055A005805482E4C85441A4AC0853729F41F7E0F
:10056A00A12E2AE030E025C0512F597FA52E8F36C3
:10057A00C1F018F4883579F0BDC0803719F0883792
:10058A0021F0B8C0852F8061A82EA4FE0DC09A2D37
:10059A009460A92E09C014FF0AC0A52FA660AA2E2E
:1005AA0006C028E030E005C020E130E002C020E1CA
:1005BA0032E0F701A7FE08C06081718182819381D0
:1005CA00A7014C5F5F4F07C06081718180E090E0B6
:1005DA00A7014E5F5F4F7A01AE014F5F5F4F0E94E6
:1005EA005805482E5C85451A8A2D8F77382E36FE97
:1005FA000DC0932D9E7FA92E4B1458F434FE0BC0C8
:10060A0032FC09C0A32DAE7EAA2E05C0142DA32C40
:10061A0003C0142D01C01B2DA4FE0EC0FE01E40D63
:10062A00F11D8081803321F4EA2DE97EAE2E08C0C7
:10063A00A2FE05C01E5F04C08A2D867809F01F5FDE
:10064A00A3FC11C0A0FE06C0101788F4040DB02E3A
:10065A00B11A0EC0101760F4B60180E290E00E9451
:10066A00B6051F5FF7CF101718F4011B02C0B42C90
:10067A0000E0A4FE10C0B60180E390E00E94B60537
:10068A00A2FE17C0A1FC03C088E790E002C088E57B
:10069A0090E0B6010CC08A2D867859F0A1FE02C0FE
:1006AA008BE201C080E2A7FC8DE2B60190E00E94D5
:1006BA00B6054B1438F4B60180E390E00E94B60503
:1006CA00BA94F7CF4A94E1E0F0E0EC0FFD1FE40D95
:1006DA00F11D8081B60190E00E94B6054110F2CF6B
:1006EA00002309F42CCEB60180E290E00E94B60500
:1006FA000150F6CFF6018781908502C08FEF9FEFF8
:10070A0062960FB6F894DEBF0FBECDBFDF91CF91D0
:10071A001F910F91FF90EF90DF90CF90BF90AF9015
:10072A009F908F907F906F904F903F902F90089559
:10073A00CF93DF9300D01F92CDB7DEB787E690E064
:10074A000E949006E4E0F2E089E192E093838283DA
:10075A008AE092E09183808384B1876084B98CB502
:10076A0080658CBD8CB581608CBD109207018DB1FE
:10077A008F7E8DB981B18B7F81B981E3898382E3D1
:10078A008A8383E38B8384E38C838DB188608DB9FC
:10079A007894A1E9B0E01C9210929500109294000E
:1007AA00E0E9F0E0808180648083808181608083D9
:1007BA008C9180618C93E1E7F0E080818260808394
:1007CA0080EC9BE3909399008093980085B18E7F8B
:1007DA0085B9809128028EBD0DB407FEFDCF8091A8
:1007EA002802823009F470C02CF4882351F0813039
:1007FA0011F1D1C0833009F486C0843009F4ADC048
:10080A00CAC08EE892E0A0E0AF939F938F930E94B4
:10081A007B060F900F900F90649B03C081E080933A
:10082A0028022FEF83ED90E3215080409040E1F7BA
:10083A0000C00000B0C08DE992E0A0E0AF939F93A2
:10084A008F930E947B0685B1806885B984E090E029
:10085A000E94DA040F900F900F90892BC1F485EB58
:10086A0092E0A0E0AF939F938F930E947B06EFEFF5
:10087A00F3ED20E3E150F0402040E1F700C0000032
:10088A0084E0809328020F900F900F909FCF44E04E
:10089A0050E060E072E0CE0101960E9429068823AA
:1008AA0021F082E08093280276C085E08EBD0DB4E7
:1008BA0007FEFDCF8FEF9DE3E9E481509040E040D1
:1008CA00E1F700C0000067C08FEB92E0A0E0AF93B1
:1008DA009F938F930E947B060F900F900F90029B1D
:1008EA005AC083E08EBD0DB407FEFDCF83E080932E
:1008FA002802FFEF23ED80E3F15020408040E1F72A
:10090A0000C0000063CF81ED92E0A0E0AF939F9317
:10091A008F930E947B061EBC0F900F900F900DB410
:10092A0007FEFDCF9FEFE3EDF0E39150E040F0408A
:10093A00E1F700C00000E0E0F2E0108211821282CA
:10094A0013822FEF83E294EF215080409040E1F729
:10095A0000C00000109228021EC001E910E0F80150
:10096A0080818160808380EE92E0A0E0AF939F93C4
:10097A008F930E947B06FFEF29E688E1F150204021
:10098A008040E1F700C00000F80180818E7F8083FB
:10099A000F900F900F90FFEF23ED80E3F15020406E
:0A09AA008040E1F700C0000011CF0B
:1009B4000F931F93CF93DF930E94CA0687E690E0BC
:1009C4000E949006E4E0F2E089E192E0938382835E
:1009D4008AE092E09183808384B1806284B9C0E02C
:1009E400D0E000E010E00E94F205833209F454C024
:1009F400CC3221E0D2070CF052C020ED280F2A306F
:100A040008F504301105F4F425B12F7725B925B183
:100A1400206225B9F801E050FE4F80830F5F1F4F1D
:100A24000BC00E94F2053FEF91EE24E0315090405C
:100A34002040E1F700C000008A3799F785B18F7D27
:100A440085B91FC08A32E9F410161106D4F495B1A1
:100A5400906895B901501109F801E050FE4F1082D9
:100A64000BC00E94F2053FEF91EE24E0315090401C
:100A74002040E1F700C000008A3799F785B18F77ED
:100A840085B93FEF81EE94E0315080409040E1F72A
:100A940000C000002196A7CF81E090E002C080E072
:0C0AA40090E0DF91CF911F910F91089519
:100AB000FA01AA27283051F1203181F1E8946F938F
:100AC0006E7F6E5F7F4F8F4F9F4FAF4FB1E03ED035
:100AD000B4E03CD0670F781F891F9A1FA11D680FD3
:100AE000791F8A1F911DA11D6A0F711D811D911D06
:100AF000A11D20D009F468943F912AE0269F11247B
:100B00003019305D3193DEF6CF010895462F4770DE
:100B1000405D4193B3E00FD0C9F7F6CF462F4F7039
:100B2000405D4A3318F0495D31FD4052419302D097
:100B3000A9F7EACFB4E0A69597958795779567953D
:100B4000BA95C9F700976105710508959B01AC013D
:100B50000A2E06945795479537952795BA95C9F764
:0C0B6000620F731F841F951FA01D0895D5
:100B6C000F931F93CF93DF93FB01248121FD03C0CF
:100B7C008FEF9FEF2CC022FF16C047815085258137
:100B8C0036814217530744F4A081B1819D012F5F38
:100B9C003F4F318320838C93278130852F5F3F4FCC
:100BAC003087278314C08B01EC01FB010184F28593
:100BBC00E02D1995892BE1F6D80117968D919C9112
:100BCC001897019618969C938E931797CE01DF91E8
:080BDC00CF911F910F910895C4
:100BE40089EF90E00197F1F700C000000E946306CE
:100BF40090E0FC01E757F109E837F10520F5882773
:100C0400EE58FF4F8F4F0C94AD068AE2089584E3AB
:100C1400089581E3089580E3089588E3089585E3C2
:100C2400089582E3089583E2089589E3089586E3AD
:100C3400089583E3089584E4089583E4089582E4A1
:0E0C4400089581E408958AE7089587E30895EE
:100C5200CF93DF93EC01DA0120E030E00CC0FE011B
:100C6200E20FF31F5081FB01E20FF31F9081591332
:100C720009C02F5F3F4FFD013197E217F3077CF761
:0C0C820081E001C080E0DF91CF91089577
:100C8E00CF92DF92EF926B01E82E9A01A82FCB0143
:100C9E002115310531F48C199D09EF90DF90CF901D
:100CAE000895FC015A2F0E94C3066623A1F30196F4
:080CBE00A11D21503109ECCF0A
:100CC60020E09FEE10C090930801E9EFF0E0319725
:100CD600F1F700C00000809106018F708F3029F473
:100CE600990F9F5F2F5F243070F3907F890F0895CF
:100CF600CF93DF93CDB7DEB79E012A5F3F4FF90151
:100D06004191519161919F01809106029091070254
:0A0D16000E947501DF91CF9108954E
:100D20009093C5008093C400E1ECF0E0808188617D
:0E0D30008083E2ECF0E080818E608083089585
:100D3E001F920F920FB60F921124109295001092DF
:0C0D4E0094000F900FBE0F901F9018959E
:100D5A00EE0FFF1F881F8BBF0790F691E02D1994A5
:0E0D6A009091C00095FFFCCF8093C6000895C5
:0E0D78008091C00085FFFCCF8091C6000895D9
:0E0D860057FD03C05BBF67910895608108951B
:080D940080EF80930701089530
:040D9C000C940000B3
:0F0DA0000000000001000000000000BC06000081
:0F0DAF00000000000200000000B5060000000078
:00000001FF
