:100000000C9419010C9443060C9443060C9443067B
:100010000C9443060C9443060C9443060C9443063C
:100020000C9443060C9443060C9443060C9443062C
:100030000C9443060C9443060C9443060C9443061C
:100040000C9443060C9443060C9443060C9443060C
:100050000C9443060C9443060C9443060C944306FC
:100060000C9443060C9443060C9443060C944306EC
:100070000C9443060C9443060C9443060C944306DC
:100080000C9443060C9443060C9443060C944306CC
:100090000C9443060C9443060C9443060C944306BC
:1000A0000C9443060C9443060C9443060C944306AC
:1000B0000C9443060C9443060C9443060C9443069C
:1000C0000C9443060C9443060C9443060C9443068C
:1000D0000C9443060C9443060C9443060C9443067C
:1000E0000C9443069A05A205A205A2059C05A2054B
:1000F0009E05A005A205A205A205A205A205A205CE
:10010000A205A205A205A205A205A205A205A205B7
:10011000A205A205A205A205A205A205A205A205A7
:10012000A205A205A205A205A205A205A205A20597
:10013000A205A205A205A205A205A205A205A20587
:10014000A205A205A205A205A205A205A205A20577
:10015000A205A205A205A205A205A205A205A20567
:10016000A205A2059205A205A205A2059405A20575
:1001700096059805A205A205A205A205A205A2055D
:10018000A205A205A205A205A205A205A205A20537
:10019000A205A205A205A205A205A205A205A20527
:1001A000A205A2058A05A205A205A2058C05A20545
:1001B0008E059005A205A205A205A205A205A2052D
:1001C000A205A2058405A205A205A205A405A20513
:1001D000860588050200020A80020A0228000C8AAD
:1001E0000228022980000C942B060C949C050C9488
:1001F00098050C9496050C9484050C9488050C9431
:100200009A050C948E050C9494050C948A050C9414
:100210008C050C949E050C94A2050C94A0050C94DE
:10022000A4050C9424060C9486050C9490050C945B
:10023000920511241FBECFEFD1E2DEBFCDBF00E09B
:100240000CBFE4EDF1E041E019C0B791A7913791FF
:100250002791079107FD0EC097918791EF01F92F24
:10026000E82F0BBF07900D92A217B307D9F7FE0135
:100270001BBE04C01D92A217B307E1F7E53EF407C9
:0E02800021F70E9444040C944501F894FFCF2E
:10028E002563256325632563200A0D000A0D00539F
:10029E00746174653A2041524D45440A0D00537401
:1002AE006174653A204D4F54494F4E444554454371
:1002BE005445440A0D0053746174653A20554E41FD
:0702CE00524D45440A0D00EA
:1002D6002F923F924F926F927F928F929F92AF9200
:1002E600BF92CF92DF92EF92FF920F931F93CF931D
:1002F600DF93CDB7DEB762970FB6F894DEBF0FBEB9
:10030600CDBF6C013A01862E7901FC011086178259
:10031600848181FFEBC19E012F5F3F4F3D872C8774
:10032600C901A0E8888B998BAA8B9FE3992EF301CC
:10033600582D0E943206862F662309F4D3C1482D14
:1003460093012F5F3F4F4F4F653219F03901842ECD
:100356000BC0F901542F0E943206862F92E0690ED7
:10036600711C811C653229F4B60190E00E943305A8
:10037600DECFB12C00E010E01032A0F48B3269F031
:1003860030F4803259F0833269F410612CC08D321A
:1003960039F0803339F4116026C01260146023C02E
:1003A600186021C017FD2AC090ED980F9A3078F496
:1003B60016FF06C0AAE0BA9E900D1124B92E13C0EE
:1003C600EAE00E9F900D1124092F10620CC08E32A8
:1003D60021F416FD87C1106406C08C3611F410682E
:1003E60002C0883659F4F301582D0E943206862F32
:1003F600FFEF6F1A7F0A8F0A6111BECF982F9F7D7C
:100406009554933028F424E0E20EF11C99820FC033
:10041600833631F0833791F0833509F064C027C005
:10042600F7018081898397012E5F3F4F79012888E4
:1004360039884A88AA24A394B12C17C0A7014D5F16
:100446005F4F5F874E87F70120803180428016FF1D
:1004560003C04B2D50E002C04FEF5FEF842DB1017A
:100466000E94C4055C01EE84FF841F7718C09701C3
:100476002D5F3F4F3F872E87F701208031804280D6
:1004860016FF03C04B2D50E002C04FEF5FEF842DE7
:10049600B1010E94C4055C011068EE84FF8413FD5F
:1004A6001EC0802F90E0A816B906C8F4B60180E2F7
:1004B60090E00E9433050150F4CFF101542D0E94C3
:1004C6003206862FFFEF2F1A3F0A4F0AB60190E039
:1004D6000E9433050111015021E0A21AB108A114AE
:1004E600B10459F7F5C0843611F0893671F5F70174
:1004F60017FF08C0608171818281938197012C5F0B
:100506003F4F09C060817181072E000C880B990B43
:1005160097012E5F3F4F79011F76312E97FF0AC054
:1005260090958095709561957F4F8F4F9F4F312F96
:100536003068332E2AE030E0AE014F5F5F4F0E94F5
:10054600D504482E4C85441A4AC0853729F41F7EA7
:10055600A12E2AE030E025C0512F597FA52E8F36D7
:10056600C1F018F4883579F0BDC0803719F08837A6
:1005760021F0B8C0852F8061A82EA4FE0DC09A2D4B
:100586009460A92E09C014FF0AC0A52FA660AA2E42
:1005960006C028E030E005C020E130E002C020E1DE
:1005A60032E0F701A7FE08C06081718182819381E4
:1005B600A7014C5F5F4F07C06081718180E090E0CA
:1005C600A7014E5F5F4F7A01AE014F5F5F4F0E94FA
:1005D600D504482E5C85451A8A2D8F77382E36FE2F
:1005E6000DC0932D9E7FA92E4B1458F434FE0BC0DC
:1005F60032FC09C0A32DAE7EAA2E05C0142DA32C55
:1006060003C0142D01C01B2DA4FE0EC0FE01E40D77
:10061600F11D8081803321F4EA2DE97EAE2E08C0DB
:10062600A2FE05C01E5F04C08A2D867809F01F5FF2
:10063600A3FC11C0A0FE06C0101788F4040DB02E4E
:10064600B11A0EC0101760F4B60180E290E00E9465
:1006560033051F5FF7CF101718F4011B02C0B42C27
:1006660000E0A4FE10C0B60180E390E00E943305CE
:10067600A2FE17C0A1FC03C088E790E002C088E58F
:1006860090E0B6010CC08A2D867859F0A1FE02C012
:100696008BE201C080E2A7FC8DE2B60190E00E94E9
:1006A60033054B1438F4B60180E390E00E9433051D
:1006B600BA94F7CF4A94E1E0F0E0EC0FFD1FE40DA9
:1006C600F11D8081B60190E00E9433054110F2CF02
:1006D600002309F42CCEB60180E290E00E94330597
:1006E6000150F6CFF6018781908502C08FEF9FEF0C
:1006F60062960FB6F894DEBF0FBECDBFDF91CF91E5
:100706001F910F91FF90EF90DF90CF90BF90AF9029
:100716009F908F907F906F904F903F902F9008956D
:100726000F931F93CF930E943F0687E690E00E94A7
:100736000D06E4E0F2E089E192E0938382838AE0A9
:1007460092E09183808384B1806284B900E010E0F6
:10075600E0E0F2E03381228191818081432F032EF4
:10076600000C550B5F933F93422F022E000C550B46
:100776005F932F93292F092E000C330B3F939F93E2
:10078600282F082E000C330B3F938F938EE892E0B0
:10079600A0E0AF939F938F930E94F8050E946F0588
:1007A600C82F2DB73EB7255F3F4F0FB6F8943EBF13
:1007B6000FBE2DBF833209F460C090ED980F9A30BA
:1007C60090F5043011057CF595B19F7795B995B1F3
:1007D600906295B9F801E050FE4F80830F5F1F4F7E
:1007E600082E000C990B0E9439068AE992E0A0E0D7
:1007F600AF939F938F930E94F8050F900F900F90E1
:100806000CC00E946F05C82F3FEF81EE94E0315077
:1008160080409040E1F700C00000CA3791F785B1EB
:100826008F7D85B920C0CA32F1F410161106DCF4AA
:1008360085B1806885B901501109F801E050FE4F75
:1008460010820CC00E946F05C82F2FEF31EE84E096
:10085600215030408040E1F700C00000CA3791F7D0
:1008660085B18F7785B99FEF21EE34E09150204016
:100876003040E1F700C000006BCFCF911F910F9180
:020886000895D3
:10088800CF93DF9300D01F92CDB7DEB787E690E015
:100898000E940D06E4E0F2E089E192E0938382830E
:1008A8008AE092E091838083109207018DB18F7E58
:1008B8008DB984B1806884B984B1806484B981E3D6
:1008C800898382E38A8383E38B8384E38C838091A7
:1008D8002802813011F1823009F44EC08111F7CF1E
:1008E8008DE992E0A0E0AF939F938F930E94F80563
:1008F80085B18F7785B90F900F900F90649B03C0D7
:1009080081E0809328022FEF83ED90E3215080400F
:100918009040E1F700C00000DACF8CEA92E0A0E056
:10092800AF939F938F930E94F80585B1806885B92E
:100938002FEF83ED90E3215080409040E1F700C015
:10094800000084E090E00E94930344E050E060E0FF
:1009580072E0CE0101960E94A6050F900F900F90AD
:10096800882339F085B1806485B982E080932802B4
:10097800AECF10922802ABCF84EC92E0A0E0AF9308
:100988009F938F930E94F8052FEF83ED90E32150FA
:1009980080409040E1F700C000000F900F900F904A
:0209A80096CFE8
:1009AA00FA01AA27283051F1203181F1E8946F9396
:1009BA006E7F6E5F7F4F8F4F9F4FAF4FB1E03ED03C
:1009CA00B4E03CD0670F781F891F9A1FA11D680FDA
:1009DA00791F8A1F911DA11D6A0F711D811D911D0D
:1009EA00A11D20D009F468943F912AE0269F112482
:1009FA003019305D3193DEF6CF010895462F4770E6
:100A0A00405D4193B3E00FD0C9F7F6CF462F4F7040
:100A1A00405D4A3318F0495D31FD4052419302D09E
:100A2A00A9F7EACFB4E0A695979587957795679544
:100A3A00BA95C9F700976105710508959B01AC0144
:100A4A000A2E06945795479537952795BA95C9F76B
:0C0A5A00620F731F841F951FA01D0895DC
:100A66000F931F93CF93DF93FB01248121FD03C0D6
:100A76008FEF9FEF2CC022FF16C04781508525813E
:100A860036814217530744F4A081B1819D012F5F3F
:100A96003F4F318320838C93278130852F5F3F4FD3
:100AA6003087278314C08B01EC01FB010184F2859A
:100AB600E02D1995892BE1F6D80117968D919C9119
:100AC6001897019618969C938E931797CE01DF91EF
:080AD600CF911F910F910895CB
:100ADE0089EF90E00197F1F700C000000E94E00559
:100AEE0090E0FC01E757F109E837F10520F588277A
:100AFE00EE58FF4F8F4F0C941C068AE2089584E344
:100B0E00089581E3089580E3089588E3089585E3C9
:100B1E00089582E3089583E2089589E3089586E3B4
:100B2E00089583E3089584E4089583E4089582E4A8
:0E0B3E00089581E408958AE7089587E30895F5
:100B4C00CF93DF93EC01DA0120E030E00CC0FE0122
:100B5C00E20FF31F5081FB01E20FF31F9081591339
:100B6C0009C02F5F3F4FFD013197E217F3077CF768
:0C0B7C0081E001C080E0DF91CF9108957E
:100B8800CF92DF92EF926B01E82E9A01A82FCB014A
:100B98002115310531F48C199D09EF90DF90CF9024
:100BA8000895FC015A2F0E9432066623A1F301968C
:080BB800A11D21503109ECCF11
:100BC00020E09FEE10C090930801E9EFF0E031972C
:100BD000F1F700C00000809106018F708F3029F47A
:100BE000990F9F5F2F5F243070F3907F890F0895D6
:100BF000CF93DF93CDB7DEB79E012A5F3F4FF90158
:100C00004191519161919F0180910602909107025B
:0A0C10000E946B01DF91CF9108955F
:100C1A009093C5008093C400E1ECF0E08081886184
:0E0C2A008083E2ECF0E080818E60808308958C
:100C3800EE0FFF1F881F8BBF0790F691E02D1994C8
:0E0C48009091C00095FFFCCF8093C6000895E8
:0E0C56008091C00085FFFCCF8091C6000895FC
:0E0C640057FD03C05BBF67910895608108953E
:0C0C720060910602709107020C9433059B
:080C7E0080EF80930701089547
:040C86000C940000CA
:0F0C8A0000000000010000000000002B06000029
:0F0C990000000000020000000024060000000020
:00000001FF
