:100000000C943D000C9418050C9418050C941805DC
:100010000C9418050C9418050C9418050C941805EC
:100020000C9418050C9418050C9418050C941805DC
:100030000C9418050C9418050C9418050C941805CC
:100040000C9418050C9418050C9418050C941805BC
:100050000C9418050C9418050C9418050C941805AC
:100060000C9418050C941805010001068001060186
:1000700024000A3401240125800011241FBECFEF83
:10008000D8E0DEBFCDBFE8E6F0E040E017C0B591B4
:10009000A59135912591059107FD0CC0959185910C
:1000A000EF01F92FE82F05900D92A217B307D9F7AA
:1000B000FE0104C01D92A217B307E1F7E937F40768
:0E00C00031F70E9405030C946500F894FFCF01
:1000CE0053797374656D2069732061637469766505
:1000DE002E2E0A0D004D6F74696F6E206465746567
:1000EE00637465642E20496E70757420706173732D
:1000FE00776F72642E2E2E0A0D0053797374656D10
:10010E0020697320756E61726D65642E2050726564
:10011E00737320726573657420627574746F6E20CC
:10012E00746F20726561726D2074686520737973C7
:10013E0074656D2E200A0D005468652073797374F2
:10014E00656D20697320726573657474696E670AD4
:10015E000D004D6F74696F6E20646574656374690C
:10016E006F6E2061637469766520696E3A0A0D00C0
:10017E0025640A0D0054494D454F55542120414CDC
:10018E0041524D212054494D454F555421200A0DC1
:10019E0000496E636F72726563742070617373775A
:1001AE006F72642E2054727920616761696E2E2001
:0301BE000A0D0027
:1001C2002F923F924F926F927F928F929F92AF9215
:1001D200BF92CF92DF92EF92FF920F931F93CF9332
:1001E200DF93CDB7DEB762970FB6F894DEBF0FBECE
:1001F200CDBF6C013A01862E7901FC01108617826F
:10020200848181FFE7C19E012F5F3F4F3D872C878D
:10021200C901A0E8888B998BAA8B9FE3992EF301E1
:10022200849187FC8081882309F4D0C1482D9301F1
:100232002F5F3F4F4F4F853219F03901842E0AC08C
:10024200F901849147FD808192E0690E711C811C45
:10025200853229F4B60190E00E945604E0CFB12C19
:1002620000E010E01032A0F48B3269F030F48032FA
:1002720059F0833269F410612CC08D3239F0803329
:1002820039F4116026C01260146023C0186021C0C6
:1002920017FD29C090ED980F9A3078F416FF06C02A
:1002A200AAE0BA9E900D1124B92E13C0EAE00E9F67
:1002B200900D1124092F10620CC08E3221F416FD0C
:1002C20085C1106406C08C3611F4106802C08836ED
:1002D20051F4F301849187FC8081FFEF6F1A7F0A4A
:1002E2008F0A8111BFCF982F9F7D9554933028F4A8
:1002F20024E0E20EF11C99820FC0833631F083377D
:1003020091F0833509F063C027C0F70180818983AA
:1003120097012E5F3F4F7901288839884A88AA249D
:10032200A394B12C17C0A7014D5F5F4F5F874E8723
:10033200F70120803180428016FF03C04B2D50E030
:1003420002C04FEF5FEF842DB1010E94AE045C0149
:10035200EE84FF841F7718C097012D5F3F4F3F87C0
:100362002E87F70120803180428016FF03C04B2D7B
:1003720050E002C04FEF5FEF842DB1010E94AE0446
:100382005C011068EE84FF8413FD1DC0802F90E095
:10039200A816B906C0F4B60180E290E00E945604A5
:1003A2000150F4CFF101849147FC8081FFEF2F1AB5
:1003B2003F0A4F0AB60190E00E9456040111015013
:1003C20021E0A21AB108A114B10461F7F5C0843684
:1003D20011F0893671F5F70117FF08C0608171814C
:1003E2008281938197012C5F3F4F09C060817181A7
:1003F200072E000C880B990B97012E5F3F4F790156
:100402001F76312E97FF0AC0909580957095619561
:100412007F4F8F4F9F4F312F3068332E2AE030E0CD
:10042200AE014F5F5F4F0E94F803482E4C85441A7D
:100432004AC0853729F41F7EA12E2AE030E025C06C
:10044200512F597FA52E8F36C1F018F4883579F0D7
:10045200BDC0803719F0883721F0B8C0852F806180
:10046200A82EA4FE0DC09A2D9460A92E09C014FFD7
:100472000AC0A52FA660AA2E06C028E030E005C05B
:1004820020E130E002C020E132E0F701A7FE08C01F
:100492006081718182819381A7014C5F5F4F07C0A8
:1004A2006081718180E090E0A7014E5F5F4F7A0129
:1004B200AE014F5F5F4F0E94F803482E5C85451ADC
:1004C2008A2D8F77382E36FE0DC0932D9E7FA92E52
:1004D2004B1458F434FE0BC032FC09C0A32DAE7E7F
:1004E200AA2E05C0142DA32C03C0142D01C01B2D50
:1004F200A4FE0EC0FE01E40DF11D8081803321F4C3
:10050200EA2DE97EAE2E08C0A2FE05C01E5F04C021
:100512008A2D867809F01F5FA3FC11C0A0FE06C0D9
:10052200101788F4040DB02EB11A0EC0101760F423
:10053200B60180E290E00E9456041F5FF7CF1017C9
:1005420018F4011B02C0B42C00E0A4FE10C0B601D6
:1005520080E390E00E945604A2FE17C0A1FC03C0F3
:1005620088E790E002C088E590E0B6010CC08A2DD1
:10057200867859F0A1FE02C08BE201C080E2A7FC9E
:100582008DE2B60190E00E9456044B1438F4B60195
:1005920080E390E00E945604BA94F7CF4A94E1E0D7
:1005A200F0E0EC0FFD1FE40DF11D8081B60190E03B
:1005B2000E9456044110F2CF002309F430CEB60156
:1005C20080E290E00E9456040150F6CFF601878146
:1005D200908502C08FEF9FEF62960FB6F894DEBF50
:1005E2000FBECDBFDF91CF911F910F91FF90EF9082
:1005F200DF90CF90BF90AF909F908F907F906F9041
:080602004F903F902F900895E6
:10060A0087E690E00E94FB04E0E0F1E085E191E0FA
:10061A009383828386E091E09183808384B18260B0
:10062A0084B981EC9BE3909389008093880080E1F0
:10063A0084B980E48CBD8AB180688AB98AB1806441
:10064A008AB98AB180628AB98EB580932401809171
:10065A0024018230A9F12CF4882361F08130F1F071
:10066A00B8C0843009F47BC00CF441C0853009F469
:10067A009CC0AFC08BB18F7B8BB9E1E8F0E0808181
:10068A008E7F80838EEC90E0A0E0AF939F938F9350
:10069A000E94E4040F900F900F909BC08BB18F7B48
:1006AA008BB98BB180628BB983EE90E0A0E0AF93F7
:1006BA009F938F930E94E4040F900F900F9089C02C
:1006CA008BB180648BB98BB18F7D8BB9E1E8F0E097
:1006DA0080818E7F808388E091E0A0E0AF939F9332
:1006EA008F930E94E4040F900F900F9072C086E4DB
:1006FA0091E0A0E0AF939F938F930E94E40480E679
:10070A0091E0A0E0AF939F938F930E94E40410922C
:10071A0024010F900F900F900F900F900F90C6E04A
:10072A00D0E019C0DF93CF938EE791E0A0E0AF93BA
:10073A009F938F930E94E4049FEF23ED80E39150EF
:10074A0020408040E1F700C0000021970F900F90F1
:10075A000F900F900F901C161D0624F33AC08BB110
:10076A008F7D8BB98BB180688BB9C1E8D0E0888165
:10077A008160888383E891E0A0E0AF939F938F9391
:10078A000E94E4049FEF29E688E1915020408040CE
:10079A00E1F700C000008BB18F778BB988818E7F1B
:1007AA0088830F900F900F9014C08FE991E0A0E01A
:1007BA00AF939F938F930E94E4049FEF23ED80E30E
:1007CA00915020408040E1F700C000000F900F9048
:1007DA000F909FEF29E688E1915020408040E1F791
:0607EA0000C0000031CF49
:1007F000FA01AA27283051F1203181F1E8946F9352
:100800006E7F6E5F7F4F8F4F9F4FAF4FB1E03ED0F7
:10081000B4E03CD0670F781F891F9A1FA11D680F95
:10082000791F8A1F911DA11D6A0F711D811D911DC8
:10083000A11D20D009F468943F912AE0269F11243D
:100840003019305D3193DEF6CF010895462F4770A1
:10085000405D4193B3E00FD0C9F7F6CF462F4F70FC
:10086000405D4A3318F0495D31FD4052419302D05A
:10087000A9F7EACFB4E0A695979587957795679500
:10088000BA95C9F700976105710508959B01AC0100
:100890000A2E06945795479537952795BA95C9F727
:0C08A000620F731F841F951FA01D089598
:1008AC000F931F93CF93DF93FB01248121FD03C092
:1008BC008FEF9FEF2CC022FF16C0478150852581FA
:1008CC0036814217530744F4A081B1819D012F5FFB
:1008DC003F4F318320838C93278130852F5F3F4F8F
:1008EC003087278314C08B01EC01FB010184F28556
:1008FC00E02D0995892BE1F6D80117968D919C91E5
:10090C001897019618969C938E931797CE01DF91AA
:08091C00CF911F910F91089586
:100924002F923F924F925F926F927F928F929F92FB
:10093400AF92BF92CF92DF92EF92FF920F931F93E9
:10094400CF93DF93CDB7DEB7CA1BDB0B0FB6F8949A
:08095400DEBF0FBECDBF099408
:10095C00CF92DF92EF926B01E82EA82FCB014115BD
:10096C00510531F48C199D09EF90DF90CF900895CB
:10097C00FC012491A7FD20812223A1F30196A11D46
:06098C0041505109ECCFBF
:100992002A88398848885F846E847D848C849B840D
:1009A200AA84B984C884DF80EE80FD800C811B811B
:1009B200AA81B981CE0FD11D0FB6F894DEBF0FBE4A
:0609C200CDBFED01089518
:1009C800A0E0B0E0EAEEF4E00C94A2049E012B5FF4
:1009D8003F4FF9014191519161919F01809102012D
:0E09E800909103010E94E100E2E00C94D9041A
:1009F6009093C5008093C400E1ECF0E080818861AB
:0E0A06008083E2ECF0E080818E6080830895B2
:0E0A14009091C00095FFFCCF8093C60008951E
:0E0A22008091C00085FFFCCF8091C600089532
:040A30000C94000022
:0F0A34000000000001000000000000110500009C
:0F0A43000000000002000000000A050000000093
:00000001FF
