:100000000C943D000C9491040C9491040C94910474
:100010000C9491040C9491040C9491040C9491040C
:100020000C9491040C9491040C9491040C94750418
:100030000C9491040C9491040C9491040C949104EC
:100040000C9491040C9491040C9491040C949104DC
:100050000C9491040C9491040C9491040C949104CC
:100060000C9491040C949104010001068001060196
:100070002400092601240125800011241FBECFEF92
:10008000D8E0DEBFCDBFE8E6F0E040E017C0B591B4
:10009000A59135912591059107FD0CC0959185910C
:1000A000EF01F92FE82F05900D92A217B307D9F7AA
:1000B000FE0104C01D92A217B307E1F7E937F40768
:0E00C00031F70E9498020C946500F894FFCF6F
:1000CE0057616974696E6720646174610A0D00413D
:0900DE004C41524D21210A0D0094
:1000E8002F923F924F926F927F928F929F92AF92F0
:1000F800BF92CF92DF92EF92FF920F931F93CF930D
:10010800DF93CDB7DEB762970FB6F894DEBF0FBEA8
:10011800CDBF6C013A01862E7901FC011086178249
:10012800848181FFE7C19E012F5F3F4F3D872C8768
:10013800C901A0E8888B998BAA8B9FE3992EF301BC
:10014800849187FC8081882309F4D0C1482D9301CC
:100158002F5F3F4F4F4F853219F03901842E0AC067
:10016800F901849147FD808192E0690E711C811C20
:10017800853229F4B60190E00E94C103E0CFB12C8A
:1001880000E010E01032A0F48B3269F030F48032D5
:1001980059F0833269F410612CC08D3239F0803304
:1001A80039F4116026C01260146023C0186021C0A1
:1001B80017FD29C090ED980F9A3078F416FF06C005
:1001C800AAE0BA9E900D1124B92E13C0EAE00E9F42
:1001D800900D1124092F10620CC08E3221F416FDE7
:1001E80085C1106406C08C3611F4106802C08836C8
:1001F80051F4F301849187FC8081FFEF6F1A7F0A25
:100208008F0A8111BFCF982F9F7D9554933028F482
:1002180024E0E20EF11C99820FC0833631F0833757
:1002280091F0833509F063C027C0F7018081898385
:1002380097012E5F3F4F7901288839884A88AA2478
:10024800A394B12C17C0A7014D5F5F4F5F874E87FE
:10025800F70120803180428016FF03C04B2D50E00B
:1002680002C04FEF5FEF842DB1010E9419045C01B9
:10027800EE84FF841F7718C097012D5F3F4F3F879B
:100288002E87F70120803180428016FF03C04B2D56
:1002980050E002C04FEF5FEF842DB1010E941904B6
:1002A8005C011068EE84FF8413FD1DC0802F90E070
:1002B800A816B906C0F4B60180E290E00E94C10316
:1002C8000150F4CFF101849147FC8081FFEF2F1A90
:1002D8003F0A4F0AB60190E00E94C1030111015084
:1002E80021E0A21AB108A114B10461F7F5C084365F
:1002F80011F0893671F5F70117FF08C06081718127
:100308008281938197012C5F3F4F09C06081718181
:10031800072E000C880B990B97012E5F3F4F790130
:100328001F76312E97FF0AC090958095709561953C
:100338007F4F8F4F9F4F312F3068332E2AE030E0A8
:10034800AE014F5F5F4F0E946303482E4C85441AED
:100358004AC0853729F41F7EA12E2AE030E025C047
:10036800512F597FA52E8F36C1F018F4883579F0B2
:10037800BDC0803719F0883721F0B8C0852F80615B
:10038800A82EA4FE0DC09A2D9460A92E09C014FFB2
:100398000AC0A52FA660AA2E06C028E030E005C036
:1003A80020E130E002C020E132E0F701A7FE08C0FA
:1003B8006081718182819381A7014C5F5F4F07C083
:1003C8006081718180E090E0A7014E5F5F4F7A0104
:1003D800AE014F5F5F4F0E946303482E5C85451A4C
:1003E8008A2D8F77382E36FE0DC0932D9E7FA92E2D
:1003F8004B1458F434FE0BC032FC09C0A32DAE7E5A
:10040800AA2E05C0142DA32C03C0142D01C01B2D2A
:10041800A4FE0EC0FE01E40DF11D8081803321F49D
:10042800EA2DE97EAE2E08C0A2FE05C01E5F04C0FC
:100438008A2D867809F01F5FA3FC11C0A0FE06C0B4
:10044800101788F4040DB02EB11A0EC0101760F4FE
:10045800B60180E290E00E94C1031F5FF7CF10173A
:1004680018F4011B02C0B42C00E0A4FE10C0B601B1
:1004780080E390E00E94C103A2FE17C0A1FC03C064
:1004880088E790E002C088E590E0B6010CC08A2DAC
:10049800867859F0A1FE02C08BE201C080E2A7FC79
:1004A8008DE2B60190E00E94C1034B1438F4B60106
:1004B80080E390E00E94C103BA94F7CF4A94E1E048
:1004C800F0E0EC0FFD1FE40DF11D8081B60190E016
:1004D8000E94C1034110F2CF002309F430CEB601C7
:1004E80080E290E00E94C1030150F6CFF6018781B7
:1004F800908502C08FEF9FEF62960FB6F894DEBF2B
:100508000FBECDBFDF91CF911F910F91FF90EF905C
:10051800DF90CF90BF90AF909F908F907F906F901B
:080528004F903F902F900895C1
:1005300087E690E00E946604E0E0F1E085E191E06A
:100540009383828386E091E09183808384B182608B
:1005500084B97894A1E8B0E01C92109285001092C2
:100560008400E0E8F0E080818064808380818160A5
:1005700080838C9180618C93EFE6F0E080818260D3
:10058000808381EC9BE39093890080938800809125
:100590002401882319F0813091F0F9CF8EEC90E09E
:1005A000A0E0AF939F938F930E944F040E94050396
:1005B00081E0809324010F900F900F90E8CFC1E865
:1005C000D0E08881816088838DED90E0A0E0AF93DA
:1005D0009F938F930E944F042FEF81EE94E0215060
:1005E00080409040E1F700C0000088818E7F8883C2
:1005F0002FEF89E698E1215080409040E1F700C05C
:0A06000000000F900F900F90C2CF82
:10060A00CF93DF93CDB7DEB764970FB6F894DEBF0A
:10061A000FBECDBF87E690E00E946604E0E0F1E0FD
:10062A0085E191E09383828386E091E091838083E0
:10063A008AEA8093BA00ECEBF0E0808184648083DC
:10064A0080818F7C80838091BC008823E4F7ECEB67
:10065A00F0E08081846C80838091BC008823E4F779
:10066A008091B900887F803811F0803921F4809117
:10067A00BB0089830FC0883811F0883921F4809132
:10068A00BB00898307C0803A29F4ECEBF0E0808153
:10069A0080688083CE010196A0E8AF939F938F93E1
:1006AA000E944F040F900F900F9064960FB6F89423
:0C06BA00DEBF0FBECDBFDF91CF910895D1
:1006C600FA01AA27283051F1203181F1E8946F937D
:1006D6006E7F6E5F7F4F8F4F9F4FAF4FB1E03ED023
:1006E600B4E03CD0670F781F891F9A1FA11D680FC1
:1006F600791F8A1F911DA11D6A0F711D811D911DF4
:10070600A11D20D009F468943F912AE0269F112468
:100716003019305D3193DEF6CF010895462F4770CC
:10072600405D4193B3E00FD0C9F7F6CF462F4F7027
:10073600405D4A3318F0495D31FD4052419302D085
:10074600A9F7EACFB4E0A69597958795779567952B
:10075600BA95C9F700976105710508959B01AC012B
:100766000A2E06945795479537952795BA95C9F752
:0C077600620F731F841F951FA01D0895C3
:100782000F931F93CF93DF93FB01248121FD03C0BD
:100792008FEF9FEF2CC022FF16C047815085258125
:1007A20036814217530744F4A081B1819D012F5F26
:1007B2003F4F318320838C93278130852F5F3F4FBA
:1007C2003087278314C08B01EC01FB010184F28581
:1007D200E02D0995892BE1F6D80117968D919C9110
:1007E2001897019618969C938E931797CE01DF91D6
:0807F200CF911F910F910895B2
:1007FA002F923F924F925F926F927F928F929F9227
:10080A00AF92BF92CF92DF92EF92FF920F931F9314
:10081A00CF93DF93CDB7DEB7CA1BDB0B0FB6F894C5
:08082A00DEBF0FBECDBF099433
:10083200CF92DF92EF926B01E82EA82FCB014115E8
:10084200510531F48C199D09EF90DF90CF900895F6
:10085200FC012491A7FD20812223A1F30196A11D71
:0608620041505109ECCFEA
:100868002A88398848885F846E847D848C849B8438
:10087800AA84B984C884DF80EE80FD800C811B8146
:10088800AA81B981CE0FD11D0FB6F894DEBF0FBE75
:06089800CDBFED01089543
:10089E00A0E0B0E0E5E5F4E00C940D049E012B5FC2
:1008AE003F4FF9014191519161919F018091020158
:0E08BE00909103010E947400E2E00C94440447
:1008CC009093C5008093C400E1ECF0E080818861D6
:0E08DC008083E2ECF0E080818E6080830895DE
:1008EA001F920F920FB60F92112410928500109248
:0C08FA0084000F900FBE0F901F90189507
:0E0906009091C00095FFFCCF8093C60008952D
:0E0914008091C00085FFFCCF8091C600089541
:040922000C94000031
:0F09260000000000010000000000008A04000033
:0F0935000000000002000000008304000000002A
:00000001FF
